:100000002BC04DC04CC04BC04AC049C048C047C0BF
:1000100046C045C044C0F4C142C041C040C03FC01A
:100020003EC000003A00370000003B0038000000EE
:100030003900360001010101010101010202020142
:1000400002040810204080040201000000000004A7
:10005000030201000000500011241FBECFEDCDBFF0
:1000600010E0A0E6B0E0EAEBF6E002C005900D92E9
:10007000AC36B107D9F710E0ACE6B0E001C01D9294
:10008000A038B107E1F710E0C8E5D0E003C022973F
:10009000FE010DD3C635D107D1F7A7D10CC3B0CF20
:1000A00080916A0090916B00209168003091690006
:1000B000820F931F62E070E094D270936F006093A0
:1000C0006E00089580916000E0D090936D00809361
:1000D0006C0020916A0030916B002817390724F4D6
:1000E00030936D0020936C0020916800309169007E
:1000F00080916C0090916D008217930724F43093E7
:100100006D0020936C000895AF92BF92CF92DF9262
:10011000EF92FF920F931F9300D000D060916C007C
:1001200070916D00882777FD8095982F2091680049
:1001300030916900442737FD4095542FE0906A00C4
:10014000F0906B000027F7FC0095102FEFEFAE2E1C
:10015000B12CC12CD12CEDB7FEB7A182B282C382E3
:10016000D482AA24BB246501F9D070936D006093FA
:100170006C0000916E0010916F000F900F900F9027
:100180000F908091600081D0081B190B101611068A
:1001900064F400916E0010916F008091600075D042
:1001A0000F5F1F4F081B190B0CC0809160006DD0B2
:1001B00020916E0030916F008C01021B130B0F5FBA
:1001C0001F4F000F111F0F3F110519F014F00FEF13
:1001D00010E017FF02C000E010E010936D000093E4
:1001E0006C001093750000937400809160004DD0F6
:1001F00020916E0030916F00821793074CF48FEFBF
:1002000090E020916C0030916D00821B930B02C036
:100210008FEF90E090937100809370008091600068
:1002200034D020916E0030916F00821793074CF00C
:100230008FEF90E020916C0030916D00821B930B4A
:1002400002C08FEF90E090937300809372006091F2
:100250007400709175008091620040D060917000D0
:10026000709171008091660039D060917200709138
:1002700073008091640032D01F910F91FF90EF9036
:10028000DF90CF90BF90AF900895982F8E3008F0F8
:100290009E5083B1292F26952695269530E0217012
:1002A000307045E0220F331F4A95E1F78F7D822B96
:1002B00083B99770809176008295880F880F807C33
:1002C000892B87B9369A3699FECF24B145B1942F40
:1002D00080E030E0282B392BC90108951F93CF937C
:1002E000DF93182FEB0161E0FBD0209769F1CF3F3E
:1002F000D10569F1E12FF0E0E65BFF4F8491823098
:1003000079F0833018F48130E1F405C0833069F06E
:100310008430B9F410C080B7806880BFC6BF1AC0EF
:1003200080B7806280BFCCBF15C08FB580688FBD9D
:10033000DBBDCABD0FC08FB580628FBDD9BDC8BD42
:1003400009C0C038D1051CF4812F60E002C0812FA4
:1003500061E0ECD0DF91CF911F9108952F923F92F1
:100360004F925F926F927F928F929F92AF92BF92C5
:10037000CF92DF92EF92FF920F931F93DF93CF9371
:10038000CDB7DEB73B014C0119012A016D897E8989
:100390008F89988D6A197B098C099D09621A730AE5
:1003A000840A950AA401930103D1E218F308040911
:1003B0001509A801970128D12A0D3B1D4C1D5D1D73
:1003C000B901CA01CF91DF911F910F91FF90EF907A
:1003D000DF90CF90BF90AF909F908F907F906F9065
:1003E0005F904F903F902F900895CF93DF935CD014
:1003F00069DEC0E0D0E088DE2097E9F301DEFBCFC4
:100400001F920F920FB60F9211242F933F934F9389
:100410005F936F937F938F939F93AF93BF9320913D
:100420007B0030917C0040917D0050917E00709166
:100430007F00DA01C9014096A11DB11D672F605DE3
:100440006D3730F06D57DA01C9014196A11DB11D1C
:1004500060937F0080937B0090937C00A0937D004D
:10046000B0937E008091770090917800A091790000
:10047000B0917A000196A11DB11D809377009093F1
:100480007800A0937900B0937A00BF91AF919F91CB
:100490008F917F916F915F914F913F912F910F902D
:1004A0000FBE0F901F901895789480B7826080BF20
:1004B00080B7816080BF83B7826083BF83B781606C
:1004C00083BF89B7816089BF1EBC8EB582608EBD37
:1004D0008FB581608FBD329A319A309A379A0895DC
:1004E000482F50E0CA01815C9F4FFC0124914C5C75
:1004F0005F4FFA0184918823C1F0E82FF0E0EE0FFE
:10050000FF1FEE5DFF4FA591B491662341F49FB7A5
:10051000F8948C91209582238C939FBF08959FB768
:10052000F8948C91822B8C939FBF0895482F50E0B4
:10053000CA01865B9F4FFC012491CA01815C9F4FD9
:10054000FC0194914C5C5F4FFA013491332379F1B3
:100550002223C9F02230A1F0233018F4213099F47D
:100560000CC0233019F0243071F403C08FB58F779D
:1005700002C08FB58F7D8FBD06C080B78F7702C058
:1005800080B78F7D80BFE32FF0E0EE0FFF1FE85DA7
:10059000FF4FA591B4912FB7F894662321F48C9165
:1005A0009095892302C08C91892B8C932FBF08953D
:1005B000FF27EE27BB27AA2760FF04C0A20FB31FA7
:1005C000E41FF51F220F331F441F551F9695879573
:1005D0007795679589F70097760771F7CF01BD0189
:1005E000089597FB092E07260AD077FD04D027D05F
:1005F00006D000201AF4709561957F4F0895F6F7A4
:10060000909581959F4F089597FB092E05260ED052
:1006100057FD04D028D00AD0001C38F450954095DE
:10062000309521953F4F4F4F5F4F0895F6F79095C6
:100630008095709561957F4F8F4F9F4F0895AA1BAE
:10064000BB1B51E107C0AA1FBB1FA617B70710F0BD
:10065000A61BB70B881F991F5A95A9F780959095EF
:10066000BC01CD010895A1E21A2EAA1BBB1BFD01FE
:100670000DC0AA1FBB1FEE1FFF1FA217B307E40781
:10068000F50720F0A21BB30BE40BF50B661F771FD9
:10069000881F991F1A9469F76095709580959095B9
:1006A0009B01AC01BD01CF010895EE0FFF1F059026
:0A06B000F491E02D0994F894FFCFB7
:0C06BA0001000600070008008002480351
:00000001FF
